:100000000C945D000C9485000C9485000C94850084
:100010000C9485000C9485000C9485000C9485004C
:100020000C9485000C9485000C9485000C9485003C
:100030000C9485000C9485000C9485000C9485002C
:100040000C946A030C9485000C9438030C941203EE
:100050000C9485000C9485000C9485000C9485000C
:100060000C9485000C9485000000000024002700FB
:100070002A0000000000250028002B0004040404CE
:100080000404040402020202020203030303030342
:10009000010204081020408001020408102001021F
:1000A00004081020000000080002010000030407FB
:1000B0000000000000000000F30411241FBECFEF79
:1000C000D4E0DEBFCDBF11E0A0E0B1E0EEEEFAE09B
:1000D00002C005900D92A831B107D9F721E0A8E13F
:1000E000B1E001C01D92A43CB207E1F710E0CDE5FC
:1000F000D0E004C02197FE010E946A05CC35D107EB
:10010000C9F70E94B4030C9475050C940000CF92BB
:10011000DF92EF92FF920F931F93CF93DF936C01C7
:100120007A018B01C0E0D0E0CE15DF0589F0D8015F
:100130006D918D01D601ED91FC910190F081E02D42
:10014000C6010995892B11F47E0102C02196ECCFDE
:10015000C701DF91CF911F910F91FF90EF90DF903A
:10016000CF900895FC01918D828D981761F0828D5A
:10017000DF01A80FB11D5D968C91928D9F5F9F73DB
:10018000928F90E008958FEF9FEF0895FC01918D7D
:10019000828D981731F0828DE80FF11D858D90E0EA
:1001A00008958FEF9FEF0895FC01918D228D892F87
:1001B00090E0805C9F4F821B91098F73992708956F
:1001C00087E291E00E94D40021E0892B09F420E02D
:1001D000822F0895FC01848DDF01A80FB11DA35A61
:1001E000BF4F2C91848D90E001968F739927848F57
:1001F000A689B7892C93A089B1898C9180648C934E
:10020000938D848D981306C00288F389E02D808138
:100210008F7D80830895EF92FF920F931F93CF936A
:10022000DF93EC0181E0888F9B8D8C8D981305C046
:10023000E889F989808185FD24C0F62E0B8D10E0B8
:100240000F5F1F4F0F731127E02E8C8DE8120CC02B
:100250000FB607FCFACFE889F989808185FFF5CFD1
:10026000CE010E94EA00F1CF8B8DFE01E80FF11D57
:10027000E35AFF4FF0820B8FEA89FB89808180620D
:1002800007C0EE89FF896083E889F98980818064ED
:10029000808381E090E0DF91CF911F910F91FF90DB
:1002A000EF900895CF93DF93EC01888D8823C9F0F8
:1002B000EA89FB89808185FD05C0A889B9898C916F
:1002C00086FD0FC00FB607FCF5CF808185FFF2CF0A
:1002D000A889B9898C9185FFEDCFCE010E94EA00F3
:1002E000E7CFDF91CF91089580E090E0892B29F04E
:1002F0000E94E00081110C940000089590E0FC0140
:10030000EC55FF4F3491FC01E057FF4F2491FC0165
:10031000E458FF4FE491EE2309F43BC0332339F155
:10032000333091F038F43130A9F0323001F584B532
:100330008F7D12C0373091F03830A1F03430B9F4ED
:10034000809180008F7D03C0809180008F778093A3
:1003500080000DC084B58F7784BD09C08091B00046
:100360008F7703C08091B0008F7D8093B000F0E064
:10037000EE0FFF1FEE58FF4FA591B4918FB7F89481
:10038000EC91611103C020952E2301C02E2B2C93DC
:100390008FBF0895CF93DF9390E0FC01E057FF4FAC
:1003A0002491FC01E458FF4F8491882361F190E08F
:1003B000880F991FFC01E859FF4FC591D491FC01AA
:1003C000EE58FF4FA591B491611109C09FB7F89401
:1003D0008881209582238883EC912E230BC0623084
:1003E00061F49FB7F8943881822F809583238883A6
:1003F000EC912E2B2C939FBF06C08FB7F894E88109
:100400002E2B28838FBFDF91CF9108951F93CF9319
:10041000DF93182FEB0161E00E94CA01209711F4CD
:1004200060E004C0CF3FD10539F461E0812FDF9156
:10043000CF911F910C947E01E12FF0E0EC55FF4F1E
:10044000E491E330F9F048F4E130B9F0E230A1F59D
:1004500084B5806284BDC8BD34C0E730E9F0E830BF
:1004600019F1E43049F5809180008062809380002A
:10047000D0938B00C0938A0024C084B5806884BD6B
:10048000C7BD1FC080918000806880938000D0939A
:100490008900C093880015C08091B0008068809367
:1004A000B000C093B3000DC08091B0008062809313
:1004B000B000C093B40005C0C038D1050CF0B5CF72
:1004C000AFCFDF91CF911F9108958E3008F08E50FD
:1004D0008770806480937C0080917A008064809330
:1004E0007A0080917A0086FDFCCF8091780020917F
:1004F000790090E0922B0895009769F0FC0101903B
:100500000020E9F73197AF01481B590BBC0187E286
:1005100091E00C94870080E090E008958F929F9284
:10052000AF92BF92CF92DF92EF92FF920F931F9301
:10053000CF93DF93CDB7DEB7A1970FB6F894DEBFA8
:100540000FBECDBF6C01990FEE08FF08F7FE31C05A
:10055000E0912701F09128010190F081E02D6DE2FA
:1005600087E291E009958C0122273327A9012C19F4
:100570003D094E095F0919A2CE0181967C019AE0DE
:10058000892E912CA12CB12CCA01B901A50194018D
:100590000E943405605DF70162937F0121153105EA
:1005A0004105510589F7CF010E947C02080F191FF0
:1005B0001EC0A701960119A28E010F5D1F4F8AE090
:1005C000C82ED12CE12CF12CCA01B901A70196014A
:1005D0000E943405605DF80162938F012115310599
:1005E0004105510589F7CF010E947C028C0180E111
:1005F00091E00E947C02800F911FA1960FB6F894A3
:10060000DEBF0FBECDBFDF91CF911F910F91FF9045
:10061000EF90DF90CF90BF90AF909F908F90089514
:100620000E9470051F920F920FB60F9211242F9304
:100630003F934F935F936F937F938F939F93AF936A
:10064000BF93EF93FF9387E291E00E94EA00FF914E
:10065000EF91BF91AF919F918F917F916F915F913A
:100660004F913F912F910F900FBE0F901F901895B3
:100670001F920F920FB60F9211242F938F939F9377
:10068000EF93FF93E0913701F09138018081E09181
:100690003D01F0913E0182FD12C0908180914001A8
:1006A0008F5F8F7320914101821751F0E0914001DB
:1006B000F0E0E95DFE4F958F8093400101C080819D
:1006C000FF91EF919F918F912F910F900FBE0F90FF
:1006D0001F9018951F920F920FB60F9211242F930F
:1006E0003F938F939F93AF93BF9380911D01909100
:1006F0001E01A0911F01B091200130911C0123E047
:10070000230F2D3720F40196A11DB11D05C026E849
:10071000230F0296A11DB11D20931C0180931D0182
:1007200090931E01A0931F01B093200180911801A6
:1007300090911901A0911A01B0911B010196A11D80
:10074000B11D8093180190931901A0931A01B093E1
:100750001B01BF91AF919F918F913F912F910F906E
:100760000FBE0F901F901895789484B5826084BD59
:1007700084B5816084BD85B5826085BD85B58160A5
:1007800085BD80916E00816080936E001092810023
:1007900080918100826080938100809181008160DE
:1007A000809381008091800081608093800080919F
:1007B000B10084608093B1008091B000816080932B
:1007C000B00080917A00846080937A0080917A00F2
:1007D000826080937A0080917A00816080937A00B1
:1007E00080917A00806880937A001092C10060E066
:1007F0008FE00E94CA0160E080E10E94CA0161E0CE
:100800008AE00E94CA0161E08BE00E94CA0161E0B7
:100810008CE00E94CA01C2E061E08C2F0E94CA01F4
:10082000CF5FCA30C9F7E0913701F091380182E01B
:100830008083E0913301F09134011082E091350121
:10084000F09136018FEC808310923F01E0913B01E3
:10085000F0913C0186E08083E0913901F0913A010A
:10086000808180618083E0913901F0913A0180813B
:1008700088608083E0913901F0913A01808180683D
:100880008083E0913901F0913A0180818F7D8083EE
:10089000AEE7EA2EFF24FA94B3E2CB2ED12CC1E0CE
:1008A000D0E000E011E083E191E00E947C0280E171
:1008B00091E00E947C028FE00E946502B7010E94D5
:1008C00020054B01CB0108960E948E02F2E0AF2E6C
:1008D000B12C29E0820E911C8A149B0494F0C5016E
:1008E0000E948E0261E08A2D0E947E01C60101975E
:1008F000F1F760E08A2D0E947E013FEFA31AB30A50
:10090000EBCF8FE00E946502853521E09207DCF491
:100910009C01220F331F820F931F97FD039695951D
:100920008795959587959801281B390B309326015B
:10093000209325019093240180932301D0932201D9
:10094000C093210138C08A3A32E09307BCF4855540
:1009500091409C01220F331F820F931F959587951D
:1009600095958795D0932601C09325019801281B62
:10097000390B309324012093230119C08B5A9240E4
:100980009C01220F331F820F931F97FD03969595AD
:100990008795959587959093260180932501D0930F
:1009A0002401C09323019801281B390BC90190939E
:1009B00022018093210160912501709126018AE036
:1009C0000E94060260912301709124018BE00E9435
:1009D000060260912101709122018CE00E940602C2
:1009E0000E94740160CFE7E2F1E01382128288EE88
:1009F00093E0A0E0B0E084839583A683B78384E08E
:100A000091E09183808385EC90E09587848784ECE6
:100A100090E09787868780EC90E0918B808B81ECCB
:100A200090E0938B828B82EC90E0958B848B86ECAC
:100A300090E0978B868B118E128E138E148E0895F4
:100A400097FB072E16F4009407D077FD09D00E947B
:100A5000560507FC05D03EF4909581959F4F08956B
:100A6000709561957F4F0895A1E21A2EAA1BBB1BBA
:100A7000FD010DC0AA1FBB1FEE1FFF1FA217B3076A
:100A8000E407F50720F0A21BB30BE40BF50B661F80
:100A9000771F881F991F1A9469F760957095809544
:100AA00090959B01AC01BD01CF010895AA1BBB1B12
:100AB00051E107C0AA1FBB1FA617B70710F0A61B5E
:100AC000B70B881F991F5A95A9F780959095BC017F
:100AD000CD010895EE0FFF1F0590F491E02D0994CC
:0E0AE00081E090E0F8940C947505F894FFCF37
:100AEE00000000000B018700D400B200C6005201C6
:080AFE000D0A004C6F6F70003F
:00000001FF
